:020000040040BA
:10000000206A4020C91F4000C51F4000C51F400096
:10001000C51F4000C51F4000C51F40000000000074
:10002000000000000000000000000000C51F4000AC
:10003000C51F400000000000B51440009D1740009F
:10004000C51F4000C51F4000C51F4000C51F400020
:10005000C51F4000C51F4000C51F4000C51F400010
:10006000C51F400000000000C51F4000C51F400024
:10007000C51F4000C51F4000C51F4000C51F4000F0
:10008000C51F4000C51F4000C51F4000C51F4000E0
:10009000C51F4000C51F4000C51F4000C51F4000D0
:1000A000C51F4000C51F4000C51F4000C51F4000C0
:1000B000C51F4000C51F4000C51F4000C51F4000B0
:1000C000C51F4000C51F4000C51F4000C51F4000A0
:1000D000C51F4000C51F4000C51F4000C51D400092
:1000E000C51F4000C51F4000C51F4000C51F400080
:1000F000C51F4000C51F4000C51F4000C51F400070
:10010000C51F4000C51F4000C51F4000C51F40005F
:10011000C51F4000000000000000000000000000BB
:10012000C51F4000C51F4000C51F4000C51F40003F
:10013000C51F4000C51F4000C51F4000C51F40002F
:10014000C51F4000C51F4000C51F4000C51F40001F
:10015000C51F4000C51F4000C51F4000C51F40000F
:10016000C51F4000C51F400010B5054C237833B9AA
:10017000044B13B10448AFF300800123237010BD7A
:100180008000402000000000B448400008B5034B48
:100190001BB103490348AFF3008008BD0000000015
:1001A00084004020B4484000054B064A12789A5C0F
:1001B0000549895C5B5C03EBC203044A137070471A
:1001C00028454000E0024020E4024020790240201F
:1001D00038B54025054C284601F00BF9236801335A
:1001E000236001F014F901F0D6F9F4E7EC014020A6
:1001F00070B5144660B10D46064661B10D4B1B78D3
:1002000063B90378013B032B0BD90123137070BD35
:1002100004231370FBE70C231370F8E71223137009
:10022000F5E7402001F0E5F8756101F0F0F80023F2
:100230002370ECE7F8014020064B1B78012B00D01F
:100240007047054B1B78FF2BFAD00133024A13701D
:10025000F6E700BFEC024020F8014020184B1B7865
:10026000012B00D0704710B5402001F0C2F80446C1
:10027000144B1B7843B1013BDBB2124A13701BB124
:10028000204601F0C4F810BD0F4B1B78002BF7D1AE
:10029000FFF78AFF0D4B1B780D4A52F823200D49BA
:1002A0000A600D4909789942EAD0136C013313644E
:1002B0000A4A13680133136001F0F7F8E0E700BF62
:1002C000EC024020F8014020F90140207902402052
:1002D00000034020F802402078024020A000402087
:1002E00008B50A4B1B78012B00D008BD402001F057
:1002F00080F8074B1B7833B9064B1B78FF2B02D0D5
:100300000133044A137001F082F8EEE7EC0240205A
:10031000F8014020F901402008B50A4B1B7803B1D1
:1003200008BDFFF741FF084B1B78084A1370084AC5
:1003300052F82330074A1360074A136001F070F83F
:10034000EEE700BFEC024020790240207802402016
:1003500000034020F8024020F002402010B50220A7
:1003600000F0B6FE402001F044F80A4C0023236060
:1003700001F04DF8642000F0ABFE402001F039F8A8
:100380002268054B1A60054B01221A7001F03FF8F4
:1003900010BD00BFEC014020F0014020ED024020E4
:1003A000F8B501F0E7F9402001F023F82A4A136874
:1003B0000133136001F02BF8284B1B78012B00D080
:1003C000F8BD274B1B78012BFAD0022B04D033B198
:1003D000234B00221A7002E0214B01221A70214B9C
:1003E0001C6894F83A303F2BEAD040251E4F1F4E30
:1003F0000AE0002384F839301CE0646901F007F852
:1004000094F83A303F2BDBD0284600F0F2FF636BC4
:10041000002BF2D0013B6363002BEED194F838300F
:1004200013F0370FE5D023F0370384F83830012379
:1004300084F8393094F8383013F0080FDDD194F88F
:100440003E303A7813433B7094F83C20B35C94F808
:100450003D100B43B354D0E7F40F4020EC02402092
:10046000F00F4020FC024020E0024020E402402047
:1004700070470000114B1B68D86193F83C20024480
:10048000D17A93F83DC041EA0C01D172827A93F897
:100490003E100A43827293F83C1093F83DC008481E
:1004A000425C22EA0C02425432B9064A93F83E10EA
:1004B000137823EA01031370704700BFF002402055
:1004C000E4024020E002402090F83C2090F83DC03B
:1004D0000A44D37A23EA0C03D3722BB990F83E2056
:1004E0008B7A23EA02038B720023C361704710B535
:1004F00090F83CE090F83E4090F83DC00A6892B118
:100500006FEA0C0CE44302E051F8042F5AB102EBFD
:100510000E00C37A03EA0C03C372002BF4D1937A62
:1005200023409372F0E710BD70B506461B48B47ABD
:1005300010F804E006EB0E04E47A055D05EBCE0549
:10054000EDB2174850F8254000206063A16294F88E
:1005500038C02CEA020284F8382084F8393012F0CE
:10056000080F0DD10F4A94F83E3011780B431370E9
:100570000D4A12F80E3094F83D100B4302F80E307D
:1005800031462046FFF7A0FF216A29B12046FFF738
:10059000AEFF002323626662284670BD28454000F6
:1005A00000034020E0024020E40240200023837248
:1005B000C372037343738373C37303744374837489
:1005C00070470B4629B10344002200F8012B9842E2
:1005D000FBD1704770B588B000F0ACFF0023524AE1
:1005E0001360524A1370524A1370524A1370524A9F
:1005F0001370524A1360524A1360524A1360524AAF
:100600001360524A1370524A1370524A1370524A7E
:10061000137053709370D370137153719371D371BE
:100620004E4A13704E4A13704E4A13604E4A13607E
:100630004E4C4FF4FD612046FFF7C3FF4FF480712D
:100640004B48FFF7BEFF04F15C0304F5FD62494926
:1006500043F8483C43F8081C5C339A42F8D1434BBA
:100660000022C3F8A0274349C3F8E01742490A60B3
:10067000424A1360424CF0212046FFF7A2FF04F1EA
:10068000180304F1F00200203A4903F8180C43F86B
:10069000143C43F8041C18339342F6D1384B002421
:1006A00083F8D840C3F8DC40324AC3F8EC20354A1E
:1006B000136000F0DBF900F011FA00F033FA324A6F
:1006C0000326049603948025029501924FF6FF734A
:1006D00000933F2302F5FE7221462C4800F09EFC59
:1006E0000DF11F022A493F2000F0A0FB294A049681
:1006F0000394029501924FF6FE7300933E2302F598
:10070000FE722146244800F089FC0DF11F022349A6
:100710003E2000F08BFB00F0DFFD00F033FF00F027
:1007200007FF08B070BD00BFF40F4020F801402063
:10073000F9014020E80B4020EC024020A0004020BE
:10074000EC014020F4014020F0014020ED02402067
:10075000EC0D4020E0024020E402402078024020DE
:1007600079024020F8024020F0024020000440209E
:100770000003402004454000FC024020F4024020D9
:10078000A8004020A4004020EC0B4020D1014000F4
:1007900008454000F00D40209508400018454000F5
:1007A00010B5402000F025FE0446104B1A78104B7F
:1007B0001B78134303D0204600F029FE10BDFFF73D
:1007C000F3FC0C4B1B780C4A52F823200B490A60AF
:1007D0000B4909789942EED0136C01331364094A2E
:1007E00013680133136000F05BFEE4E7F80140207A
:1007F000F90140207902402000034020F802402007
:1008000078024020A000402008B5104B1B78012B37
:1008100000D008BD402000F0ECFD0D4B1B7893B9D3
:100820000C4B1B7863B1013BDBB20A4A137023B94E
:1008300000F0EDFDFFF7B4FFEBE700F0E8FDE8E7BF
:1008400000F0E5FDE5E700F0E2FDE2E7EC02402024
:10085000F8014020F901402030B583B000240C4D50
:1008600009E0D9689A6802EB8102DA64019A1A6594
:100870000134402C0AD06946E0B200F013FB002896
:10088000F6D155F82430012BF2D9EAE703B030BD98
:1008900000034020F8B52D4B1B783BB9C8252B4CE5
:1008A000284600F015FC2378002BF9D028490A6867
:1008B000284BA3FB02035B090B60632A0FD940207E
:1008C00000F097FD224B1B68642202FB03F3224ACF
:1008D000136000F09CFD40251F4C1E4E0CE01F4B8A
:1008E00000221A70FF2000F027FBE8E71B4B19706D
:1008F00000F059FEFFF7B0FF012000F0E9FB2846A9
:1009000000F077FD0023236000F081FD642000F0FB
:10091000DFFB284600F06DFD2368114F3B6000F0BF
:1009200076FD3A680A4B1B68B2FBF3F3C3F164032C
:10093000D9B213F0800FD9D0084B00211970A6FB53
:1009400002325209024B1A60D2E700BFED0240208A
:10095000F00140201F85EB51EC0140209C0040201D
:10096000F40140202DE9F04106460D4690461F4611
:10097000402000F03EFD364B1C68002C64D06269BC
:100980001A6000F044FD256084F83A60002584F880
:10099000385084F839506563079B6360069BE360B9
:1009A000C4F80880BDF820302382678284F83F5065
:1009B000F20884F83C2006F0070184F83B1001237C
:1009C00003FA02F284F83E208B4084F83D30E56162
:1009D00025626562E562A5622564A5646564E564D7
:1009E00025651C4B6365A565204600F0BFFE4020D1
:1009F00000F0FFFC184B43F8264000F008FD2046AD
:100A000000F0C1FD402000F0F4FC144B1B68636152
:100A1000A56103B19C61114B1C60114A94F83E30F2
:100A200011780B43137094F83C200E498B5C94F8BA
:100A30003D4023438B540C4A13780133137000F06C
:100A4000E6FC0020BDE8F08100F0E1FC4220F9E77F
:100A5000F40240200445400000034020FC024020F6
:100A6000E0024020E4024020E80B402010B50F4C8B
:100A700050212046FFF7A5FD04F1100304F15000BA
:100A800000210B4A03F8101C43F80C3C43F8042CDB
:100A900010338342F6D1054B002283F840205A647C
:100AA000034ADA64034A136010BD00BF9C01402072
:100AB00004454000980140204268036832B1136049
:100AC00003B15A6083680022DA627047C2685360DB
:100AD000002BF7D000225A60F4E7000010B50E4C4E
:100AE00078212046FFF76DFD04F1180363600B4B7E
:100AF000636104F13002E261E36204F1480262637F
:100B0000636404F16002E264E36500226266636785
:100B1000034B1C6010BD00BF000240200445400094
:100B2000FC01402010B5094C60212046FFF749FD2B
:100B300004F11802234643F8302BA36104F1480363
:100B400023630023A364024B1C6010BD800240207D
:100B50007C02402038B50F4B1B78B3B905464020C6
:100B600000F047FC0C4B1C688CB162681A6000F006
:100B70004EFC03232370258100236360074B6361D0
:100B80002046FFF713FD204638BD0024FBE700F0A8
:100B90003EFCF8E7F8014020A40040200445400056
:100BA0002DE9F041154640B10E4604460378032B6B
:100BB00006D001231370BDE8F08104231370FAE717
:100BC000294B1B782BB9294B1B782BB10D231370A4
:100BD000F1E702231370EEE7402000F00AFC07461D
:100BE000238933BBDFF88880D8F8003093F83820A9
:100BF00042F0010283F83820002283F839205E6336
:100C00002046FFF737FC384600F001FCFFF7C8FD2F
:100C1000402000F0EEFB0646D8F8000090F839308E
:100C200073B1022B1CD02146FFF74EFC0A232B7018
:100C300008E0013B238100F0EAFB00232B70BAE7B8
:100C400000232B700A4B1B68002283F8382083F89E
:100C50003920DA611A625A62304600F0D8FBAAE7FE
:100C60000E232B70EEE700BFF8014020F901402071
:100C7000F002402070B538B304460378032B02D04D
:100C80000125284670BD402000F0B3FB0646A57A3A
:100C90004DB923894FF6FF72934211D0013323815E
:100CA00000F0B5FBEDE70023012219462046FFF7CF
:100CB0003BFC304600F0ABFBFFF772FD0025E0E7A0
:100CC00000F0A5FB3325DCE70425DAE7F8B54C4B4B
:100CD0001D78002D40F08E8004463F2800F08C8067
:100CE000A0F13F03DBB2BF2B40F28880402000F030
:100CF00080FB0646FF2C65D02746424B53F8244024
:100D0000002C64D0012C67D094F83C103E4B94F832
:100D10003D005A5C22EA00025A5494F83C209B5C45
:100D200033B93A4A94F83E10137823EA010313705A
:100D3000E16911B12046FFF7C7FB216A11B12046D6
:100D4000FFF7D5FBE06A08B1FFF7B6FE0023636347
:100D500084F8383084F839302D4B1B78FF2B02D0C3
:100D600001332B4A1370304600F051FBFFF780FB34
:100D7000402000F03EFB0646254B1B7813B1013B9B
:100D8000234A1370204600F002FC224A1378013BEC
:100D900013701C4B002243F82720A3690BB3626930
:100DA0005A61A36993611C4B1A6862611C601B4BFA
:100DB0006365304600F02BFB194B1B78012B16D0D6
:100DC0002846F8BD174B1B6893F83A4094E7304625
:100DD00000F01DFB4325F3E7304600F018FB3D25EE
:100DE000EEE763699A6162690F4B1A60DBE7FFF710
:100DF000D7FCE5E74025E3E73E25E1E72A25DFE7E5
:100E0000F801402000034020E4024020E00240209E
:100E1000F9014020E80B4020F40240200445400046
:100E2000EC024020F0024020FC02402070B5154644
:100E3000A0F14003DBB2BE2B08D904460E4641B1F7
:100E4000154B1B7843B11223137070BD2A23137006
:100E5000FBE70C231370F8E7402000F0CAFAFF2CE0
:100E60000BD00E4B53F8243063B1012B0FD05E65CD
:100E700000F0CDFA00232B70E7E7094B1B6893F8CD
:100E80003A40EEE700F0C3FA43232B70DDE700F0B1
:100E9000BEFA43232B70D8E7F8014020000340201E
:100EA000F0024020A0F14003DBB2BE2B3BD970B56D
:100EB00004460D46002938D000230B604B604020CB
:100EC00000F097FAFF2C1BD0194B53F82430E3B1F4
:100ED000012B1ED01A8A12F0010F1ED0DE689C680A
:100EE00000F095FA234653F8042BD2B9013253F897
:100EF000040B0028FAD02A60B21A6A60002070BD84
:100F00000C4B1B6893F83A40DEE700F080FA432070
:100F1000F5E700F07CFA4320F1E700F078FA45208D
:100F2000EDE70022E7E72A2070470920E7E700BF46
:100F300000034020F002402038B53F2847D0044647
:100F4000A0F13F03DBB2BF2B43D9402000F051FAA0
:100F5000FF2C2AD0204B1B6893F83A50A54214BFAF
:100F6000002501251D4B53F8243023B3012B26D037
:100F700093F83C1093F83DC0194C625C22EA0C02D5
:100F8000625432B9174993F83E400A7822EA0402C3
:100F90000A7093F8382042F0080283F8382000F0F5
:100FA00036FA012D0FD0284638BD0B4B1B6893F83D
:100FB0003A400125D6E700F02AFA4825F3E700F089
:100FC00026FA4325EFE7FFF7EBFB0025EBE7472584
:100FD000E9E72A25E7E700BFF002402000034020B0
:100FE000E4024020E002402008B5044B186800F0FD
:100FF000D6FAFF20FFF76AFE08BD00BFF0024020CE
:1010000002F00302032A00D070470029FCD000231D
:1010100040F8043B0139FBD1F6E700002DE9F0412F
:1010200084B0BDF838803F2B49D805460F46164698
:101030001C46402000F0DDF9224B1B7853B9224BAF
:1010400053F8243053B100F0E2F92825284604B0C3
:10105000BDE8F08100F0DBF93C25F7E71A4B0122EF
:1010600043F8242000F0D3F942460C990B98FFF77F
:10107000C7FF434632463946284600F099FA0146F2
:10108000CDF808800D9B01930C9B0093BDF8283090
:101090000B9A2046FFF766FC054630B90B4B1B78D0
:1010A000012BD3D1FFF77CFBD0E7402000F0A1F962
:1010B000054B002243F8242000F0A9F9C6E72A25B1
:1010C000C4E700BFF801402000034020EC024020AC
:1010D00038B5124B1A78124B1B78134301D10446D2
:1010E00000B938BD402000F084F90E4B1A6892F820
:1010F0003C1092F83DC00C4D6B5C23EA0C036B5422
:1011000033B90A4992F83E500B7823EA05030B7075
:10111000546300F07CF9FFF743FBE2E7F80140205D
:10112000F9014020F0024020E4024020E00240208B
:1011300010B50446402000F05CF9024B1C6000F042
:1011400066F910BDF40F4020032380F825300129F3
:1011500007D0836933BBC369194A126813444361DA
:1011600004E0C369164A1268134443614269154B8F
:10117000A3FB0213D11A03EB51039B08C3EBC30378
:10118000D31A114A52F8331089B10F4A42F833008A
:10119000C160086102EBC3039A8801329A80002380
:1011A00003617047064A126813444361DEE742F860
:1011B0003300C16002EBC30301229A80EFE700BF56
:1011C0008814402025499224901440204269154BF0
:1011D000A3FB0213D11A03EB51039B08C3EBC30318
:1011E000D31A114A52F83320824211D00169C268E1
:1011F000CA6002B11161012280F825200022C2607C
:101200000261094A02EBC3039A88013A9A80704747
:10121000C268054941F83320002AECD00021116151
:10122000E9E700BF25499224901440202DE9F047BA
:1012300082B0DFF89080204E204F1DE051462846B6
:10124000FFF782FF0FE0ACB12546E4686A693368B6
:101250009A42F8D12846FFF7B9FF95F82430022BBF
:10126000ECD085F825906B68002BECD0A968284657
:101270009847E8E7FFF7C8FA0DF107020021D8F810
:101280000000FFF78DFCFFF72BF832680132326067
:10129000A7FB0213D11A03EB51039B08C3EBC30353
:1012A000D31A074A52F83340002CE3D04FF002091A
:1012B0004FF0010AC8E700BF881440202549922456
:1012C000901440200410402008B5024B1868FFF726
:1012D000D1FC08BD0410402070B588B02F4C4FF4ED
:1012E00020712046FFF76DF938212D48FFF769F985
:1012F00004F1280304F5207264240020294903F82E
:10130000284C03F8030C43F81C3C43F8081C283312
:101310009342F4D1214B642283F85822002483F8AD
:101320007D42C3F864421F4AC3F878221E4A146003
:101330001E4A14801E4A102111801E4A136001208B
:10134000FFF708FC1C4E30602046FFF703FC1B4DE6
:1013500028600DF11F021A493068FEF749FF0DF1B0
:101360001F0218492868FEF743FF174A0323049316
:10137000039480230293A2F5FE7301934FF6FD734D
:1013800000933D2321461148FFF748FE0DF11E0250
:101390000F493D20FFF74AFD08B070BD08124020FC
:1013A0009014402004454000881440208C144020B4
:1013B000F80F4020FC0F4020001040200410402077
:1013C000284640003C464000041240202D124000B8
:1013D00050464000EFF3098121B120ED108A5049B9
:1013E0000A6810607047B0EC108A4E490A681060B5
:1013F000704772B602B4EFF3118180F31188BFF326
:101400004F8FBFF36F8F084602BC62B6704772B64B
:1014100080F31188BFF34F8FBFF36F8F62B67047B1
:1014200072B64EF62250CEF2000040F2FF01C0F23A
:1014300000010170002080F3098841F6CC00C2F25F
:101440004000016881F3088800F07EF936480121E8
:10145000017040F27820C2F2400040F27921C2F2DD
:1014600040010A78027040F2F020C2F2400040F2DF
:10147000F821C2F240010A680260106880F309880E
:10148000EFF3148040F0020080F31488BFF36F8FF5
:10149000BDE8F04F0FBCBDE8005006BC62B608477F
:1014A00022484FF080510160704720484FF0805132
:1014B0000160704772B641F6D002C2F24002116874
:1014C00081F31188BFF34F8FBFF36F8F62B6EFF3D5
:1014D000098020E9F04F40F2F025C2F2400529686A
:1014E0000860744600F030F940F27820C2F2400003
:1014F00040F27921C2F240010A78027040F2F821EC
:10150000C2F240010A682A6044F0040E1068B0E894
:10151000F04F80F309884FF0000282F31188704782
:10152000F0024020F8024020EC02402004ED00E0F0
:10153000704700000E4B002103F5806243F8041B46
:101540009342FBD10B4B23F007030B4A13604FF080
:10155000E023D3F8343F03F04043B3F1404F00D0D1
:10156000FEE7064B00221A80054B40221A607047A6
:10157000CC144020CC184020CC184020C814402067
:10158000D0184020704708B500F036F908BD08B5FE
:1015900000F033F908BD08B500F030F908BD08B512
:1015A00000F02EF908BD08B500F029F908BD0000CB
:1015B000043222F007024FF0007342F8083C5F4B00
:1015C00042F80C3CA3F5801342F8103CA3F58013BD
:1015D00042F8143CA3F5801342F8183CA3F580139D
:1015E00042F81C3CA3F5801342F8203CA3F580137D
:1015F00042F8243C4FF0824342F8283CA3F5001304
:1016000042F82C3CA3F5001342F8303CA3F500133C
:1016100042F8343C4FF0814342F8383CA3F5800354
:1016200042F83C3C4FF0804342F8403C4FF07E5340
:1016300042F8443C002342F8483C4FF0807342F8A3
:101640004C3C42F8500C3E4B42F8543C4FF01233A5
:1016500042F8583C4FF0033342F85C3C4FF0023301
:1016600042F8603C4FF0013342F8643C42F8681C99
:101670006FF0120342F86C3C4FF0113342F8703CAB
:101680004FF0103342F8743C4FF0093342F8783C85
:101690004FF0083342F87C3C4FF0073342F8803C6F
:1016A0004FF0063342F8843C4FF0053342F8883C53
:1016B0004FF0043342F88C3C224B42F8903CA3F5A7
:1016C000002342F8943CA3F5002342F8983CA3F58C
:1016D000002342F89C3CA3F5002342F8A03CA3F56C
:1016E000002342F8A43CA3F5002342F8A83CA3F54C
:1016F000002342F8AC3CA3F5002342F8B03CA3F52C
:10170000002342F8B43CA3F5002342F8B83CA3F50B
:10171000002342F8BC3CA3F5002342F8C03CA3F5EB
:10172000002342F8C43CA3F5002342F8C83C10460D
:101730004FF0834340F8CC3D704700BF000070413C
:10174000E90F40000000F84108B5064B1B68186817
:10175000FFF740FE00F055F8034B1B681868FFF7D1
:1017600042FE08BDF0024020F802402008B500F01B
:1017700049F808BD08B500F046F8074B1B8801334F
:101780009BB2632B02D8044A138008BD024B00228F
:101790001A80FFF799FDF8E7C814402010B54020E3
:1017A000FFF727FE0446FEF747FD2046FFF72FFE12
:1017B000FEF7F6FDFEF752FD10BD01384FF0E023B5
:1017C0005861D3F8202D22F07F4242F08042C3F8C6
:1017D000202D1A6942F005021A611A6942F00202CC
:1017E0001A61704708B5034BA3FB00308009FFF76F
:1017F000E4FF08BDD34D62107047704770477047D3
:10180000704770477047704738B50546402000F074
:101810008BF8044600F0DAF8034B1D6000F0EEF898
:10182000204600F08FF838BDD418402008B50120BC
:10183000FFF7EAFF08BD0000F8B50C4616461D4646
:10184000402000F071F8074600F0C0F82660013D26
:1018500035446560A660084B1A68E260069A22610A
:101860001C6000F0CBF8384600F06CF8079B42F2A1
:1018700010721A80F8BD00BFD81C402000B585B09A
:101880000D4B00221A600DF10E030193012300930A
:101890004FF48063094A0A490A48FFF7CDFFBDF8B3
:1018A0000E2042F210739A4202D105B05DF804FB9B
:1018B00000F060F8F9E700BFD81C4020D81840209D
:1018C000DC1C40206046400008B50F4BD3F8B43F05
:1018D00003F00303032B11D04FF0E022D2F8FC3DBC
:1018E00043F08073C2F8FC3DA2F55042136843F008
:1018F00001031360054800F03FF808BD024B044A9D
:10190000C3F8B02FE8E700BF001000E000A3E1112A
:1019100055CEACC5014B5868704700BF001000E0C1
:1019200072B6704762B6704772B602B4EFF31181B7
:1019300080F31188BFF34F8FBFF36F8F084602BC4F
:1019400062B6704772B680F31188BFF34F8FBFF352
:101950006F8F62B6704730BF704720BF7047B0FAD4
:1019600080F0704790FAA0F0B0FA80F0704790FADB
:10197000A0F07047FEE70000014B1860704700BF01
:101980000C1D402010B54020FFF7CEFF054B1C6812
:10199000FFF7D8FF044B186884428CBF201A002040
:1019A00010BD00BFF41C4020FC1C402010B5FFF708
:1019B000E9FF04464020FFF7B7FF034B00221A60FF
:1019C000FFF7C0FF204610BDF41C402008B5084AB0
:1019D000138801331380074B1B8823B1054A1388F2
:1019E0000133138008BDFFF795FF034B1860F5E73F
:1019F000F01C4020081D4020001D402008B50D4A65
:101A00001388013B9BB2138003B108BDFFF782FF2F
:101A1000094B1860094B1B68C01A094B1B688342AD
:101A200001D2074B1860074B1B688342EDD2054B70
:101A30001860EAE7081D4020041D4020001D4020DA
:101A4000F41C4020F81C40202DE9F0410024134BE9
:101A50001C60FFF739FF124B1C80124B1C80124B8D
:101A60001C60124B1C60124D2C60124F3C60DFF862
:101A70004880C8F800404020FFF756FF06462C601B
:101A8000FFF7A4FFFFF7BAFF2B68C8F800302C60FF
:101A90003C603046FFF756FFBDE8F0810C1D40204A
:101AA000F01C4020081D4020001D4020041D402047
:101AB000F41C4020F81C4020FC1C402008B530B924
:101AC0000846114600F028F840EAE07008BD4FF0E3
:101AD000FF30FBE708B5431E022B06D80846114627
:101AE00000F028F840EAE07008BD4FF0FF30FBE757
:101AF00038B50446064D2B680021986801F05CFC5F
:101B00002B680021586801F057FC024B1C6038BD5F
:101B100000004020101D402008B50346044A10680C
:101B200020B18AB2194600F0DEF908BD0020FCE7BA
:101B3000101D402008B50346044A106820B18AB23F
:101B4000194600F0CCF908BD0020FCE7101D40202C
:101B50000020704710B50C4601600846FFF7F8FFFB
:101B60000C4BC4F8E430002363606362A362AC22D0
:101B700022604FF4807222604FF40022226000EB5A
:101B80004000054A02EB800042686260034A22621C
:101B9000184610BD004153556846400051000300EF
:101BA000036850221A6070470368D9617047036860
:101BB0009869C0B2704703685869C0F34000704725
:101BC00003685869C0F3402070470368586900F003
:101BD00001007047002070471D490A6A22F0020286
:101BE0001C4B13430B620A46936E13F0010FFBD09C
:101BF000174B196A184A0A431A62996A174A0A4027
:101C00009A62174A9A621A46936E13F0020FFBD03B
:101C10000F4A136B23F070031363936E13F0080FD6
:101C2000FBD00B4A136B23F4407343F480731363AC
:101C3000936E13F0080FFBD0054A136B23F00303D8
:101C400043F002031363936E13F0080FFBD0704749
:101C500000060E40013E370000003701FFFF00F88C
:101C6000013F182030B4016010230B600368334A31
:101C70005A6003680022DA60036831491961036819
:101C8000C3F8B820036840F20111C3F8BC102D4B13
:101C90002D4919605A608024DC7101F2DC51996091
:101CA000DA60C021D973294B1A60294A294C04F102
:101CB000800C234600211A60596002F50072083337
:101CC0009C45F8D1234A92F8783043F0020382F819
:101CD00078300023204A136002681A49D1610268F3
:101CE00094611E4A1E4911605360C021D1711D4983
:101CF0001D4A0A604B6042F002020A70174D0C4602
:101D0000026803F5887142F82150026803F590716A
:101D100042F821400133052BF2D1144B1860144BCB
:101D20008022C3F88420BFF34F8FBFF36F8FC3F8B7
:101D300084215A60002030BC704700BF03011000AE
:101D400004070800B8494020003E4020C849402010
:101D5000601D4020603D4020E03D4020D0494020B3
:101D6000401D4020E83D4020201D4020441D4020D3
:101D700000E100E00268136843F00C0313600020E8
:101D80007047000030B405682C6844F010042C60E3
:101D9000C90501F078611943920402F4F802114375
:101DA000074B0B43026853630268936813F0040FF8
:101DB000FBD0136823F010031360002030BC704781
:101DC0000000025000B583B0144B186803685A69CC
:101DD00001921A6A00925A6A019A12F0200F0CD0EE
:101DE000019A5A610E4B1A680E4B03EBC203DB7962
:101DF000DB0902D0436803B19847009B13F0020F40
:101E000004D0064B1868836803B19847034B1B68DE
:101E10001B68009A1A6203B05DF804FB441D402061
:101E2000C8494020B849402000B583B001A800F05F
:101E300049F80D4AD2F8883043F47003C2F888306C
:101E4000BFF34F8FBFF36F8F01A800F042F8074A2E
:101E5000136823F4706343F4C0631360FFF7BCFEA0
:101E600003B05DF804FB00BF00ED00E0000C0E4085
:101E70000346064A126822B1044A106803441360FC
:101E80007047024A02491160F6E700BFD849402076
:101E9000206A40204FF0FF3070474FF400534B60F2
:101EA00000207047012070470020704708B50146A8
:101EB000014801F0F3F9FEE77446400070474FF027
:101EC000FF307047EFF31083036072B6BFF35F8F8C
:101ED0007047BFF35F8F036883F31088704708B5BE
:101EE0000368984708BD08B54368984708BD08B51A
:101EF000FFF7B8FE08BD08B5FFF73CFF08BD08B501
:101F0000FFF740FF08BDF8B50F46164600F108047C
:101F10002046FFF750FE0028FAD07D1EC7F10107CA
:101F200015F8011F2046FFF73FFE2046FFF743FE4E
:101F30000028FAD07B199E42F2D8002E08BF012655
:101F40002046FFF73DFE0028FAD03046F8BDF8B530
:101F500017464D1E00F10804C1F101062046FFF7A7
:101F600034FE0028FAD02046FFF721FE05F8010FC5
:101F700073199F42F2D8002F14BF38460120F8BDD4
:101F800010B504460830FFF7E5FD18B9024B636051
:101F9000024B236010BD00BF4F1F4000071F4000D1
:101FA00008B50830FFF7FCFD002008BD0160828005
:101FB0000020704708B513460A4681880068FFF77D
:101FC0009EFF08BDFEE7000008B5174A174B9A426E
:101FD00010D01A46164B9A420CD2581E801A20F086
:101FE00003000430104B184453F8041B42F8041B40
:101FF0008342F9D10F4A104B9A420BD213460F4A33
:10200000D21A22F0030204321A44002143F8041BBE
:102010009A42FBD10A4B23F07F030A4A936001F0F6
:1020200003F900F021F9FEE7B44840000000402029
:1020300064004020800040201C5240201B52402061
:102040000000400000ED00E008B500F0CFF800F01F
:1020500007F900F0A5F908BD0F4B1A6F22F4001222
:102060001A675A6F22F400125A674FF400125A602E
:102070000A4AD2F8143143F01003C2F81431084B65
:102080001A6F42F010021A675A6F42F010025A6734
:1020900010225A60704700BF000E0E4000800840BA
:1020A00000100E40044B9B6913F4804F03D1024B88
:1020B0004FF480421A61704700060E4008B5FFF7E2
:1020C000F1FFFFF7C9FFFFF785FD0246024903480C
:1020D000FFF756FF08BD00BF00800240F8494020CE
:1020E000334B1A6F22F480721A675A6F22F480728F
:1020F0005A674FF480725A601A6F22F400721A679E
:102100005A6F22F400725A674FF400725A601A6FC5
:1021100022F020021A675A6F22F020025A6720220A
:102120005A601A6F22F040021A675A6F22F040027A
:102130005A6740225A601A6F22F010021A675A6FCB
:1021400022F010025A6710225A601A6F22F08002A1
:102150001A675A6F22F080025A6780225A601A6FFB
:1021600022F004021A675A6F22F004025A6704220E
:102170005A601A6F22F008021A675A6F22F008029A
:102180005A6708225A601A6F22F001021A675A6FC2
:1021900022F001025A6701225A601A6F22F00202ED
:1021A0001A675A6F22F002025A6702225A60704779
:1021B00000140E40054BD3F8083113F0800F03D103
:1021C000024B8022C3F80021704700BF00060E407A
:1021D00008B5FFF7EFFF03490348FFF788FEFFF755
:1021E0007FFF08BD00000540DC49402008B5FFF72F
:1021F0001BFE0D4B9B6913F4805F03D10A4B4FF418
:1022000080521A61094A536D43F400435365084BE9
:102210004FF480225A61C3F890205A661A60FFF783
:102220004DFFFFF7D5FF08BD00060E4000180E4019
:1022300000120E4038B5084D2846FFF75CFE074CEB
:10224000002229462046FFF7B1FE4FF444520021F8
:102250002046FFF7AFFE38BDDC494020044A40204D
:1022600008B5FFF7E7FF08BD08B5FFF7EDFE0D4B1A
:102270004FF400425A65BFF34F8FBFF36F8F0A4B85
:102280000022C3F85022BFF34F8FBFF36F8F5A69FC
:1022900042F400325A61BFF34F8FBFF36F8F00F0EB
:1022A00045F8FEE700180E4000ED00E080B584B070
:1022B000FEF754F8FFF77AFBDFF86890DFF86880E4
:1022C000154F03E04FF4FA70FEF702FF484601F0A5
:1022D0006BF8404601F068F8384601F065F80F4C9D
:1022E0000F4E642502A994F83A00FEF7DBFD039A2D
:1022F000029B94F83A10606D019005FB02F002EB2E
:10230000030CB0FBFCF00090304600F0C7FFA4695E
:10231000002CE7D1D6E700BFD4464000000440209F
:102320000447400090464000A046400030B589B0C8
:10233000164801F039F8FFF7A1FAFFF777FA1448C9
:10234000FFF750FAFEF746F9FFF77EFB114A032329
:102350000493002403944FF4007302930192082520
:1023600000952B4602F2FC7221460B48FEF756FE02
:102370000DF11F0209492846FEF758FD2046FEF7D9
:10238000D7FEFDF7C9FF09B030BD00BF2C474000A4
:1023900000A3E1110C4A4020AD2240005447400008
:1023A00010B5044C2046FFF7FBFD2046FFF7A0FBCD
:1023B00010BD00BFF849402003685A004CBF43F0ED
:1023C000004323F000431844704700BF2DE9F84351
:1023D00029B34F1E044615463E464FF0000808EB51
:1023E000060101EBD171491004EBC1094846FFF722
:1023F000E3FF0346C80008308F42204409D0AB42B7
:1024000009D8FFF7D9FF0138A8420AD201F1010823
:10241000E5E7AB4205D9884501D04E1EDFE74FF016
:1024200000094846BDE8F883012807D0022807D0F4
:10243000044B00280CBF1846002070470248704724
:1024400002487047ED2A4000F52A4000FD2A40006E
:1024500030B5234B83B004468D1E3BB301A92846FB
:10246000AFF30080E8B101992A46FFF7AFFF0146BC
:10247000B8B1FFF7A1FF4B68A064012B2CD0002B53
:1024800001F1040024DBFFF797FF0023C4E91303E5
:102490000368002B11DBFFF78FFF2061002003B0E2
:1024A00030BD00230920236103B030BD0D4B0E4920
:1024B000C91AC91018460191D6E7C3F30360FFF7A4
:1024C000B3FF0028206114BF0020092003B030BDF5
:1024D0000123C4E91303DBE7002323610520DEE7C2
:1024E0000000000024484000B44840000368DA07B8
:1024F00010B5044606D49B0700F1480009D500F04A
:1025000057FC2368590709D51A070ED5DB0613D5E2
:1025100010BD00F045FC23685907F5D404F1D00044
:1025200000F04EFC23681A07F0D404F5A87000F000
:102530004FFC2368DB06EBD404F5E870BDE81040DF
:1025400000F08ABC0346006800B11844704700BF21
:10255000704700BF70B504460E46316C2046FFF749
:1025600077FF054688B9326C62612369324621469D
:10257000012098470828F0D0072806D12846316C5A
:10258000FFF7E6FF301D00F0FFFB00F045FE00BF47
:102590002DE9F0470D1DD0F80C80D0F818900746B3
:1025A00014460FCDADF5727D0DF10C0CACE80F00AB
:1025B0000FCDACE80F000FCDACE80F0095E80F0091
:1025C00002AE4FF0000E8CE80F00C6F800E020E0ED
:1025D000336C7B614FF4F07231467AA800F048FE0C
:1025E0003B697AAA394650469847889B73642146CE
:1025F000CDE9006905463B463A460120C0470446FE
:10260000E0B94FF4F0727AA9304600F031FE082D9F
:102610001AD1316C3846FFF71BFF09345FFA84FA90
:1026200005460028D4D0B36B73643A46CDE90069FF
:102630003B464AF010010120C04700B10925284659
:102640000DF5727DBDE8F087072DF7D12046316C7E
:10265000FFF77EFF03A800F097FB00BFF0B5CB6B40
:102660000B6401F1040C0E460546BCE80F00F9B0FE
:1026700001AC0FC4BCE80F000FC4BCE80F000FC4CE
:102680009CE80F004FF0FF3784E80F00009706E04A
:102690002B696A46294698470828044608D11099AC
:1026A0002846FFF7D5FE0028F2D0092079B0F0BD0A
:1026B0006846FFF71BFF062CF7D131462846FFF787
:1026C00049FF00BFC160D96B8261196400221946BD
:1026D000FFF75EBF70B5C66843690B64AEB90369A6
:1026E0000A4604460D46014602209847072805D0B1
:1026F00008280FD129462046FFF72CFF3046296CC9
:10270000FFF726FF281D00F03FFB0122FFF740FFE7
:1027100000F082FD00F080FDC26822B1CA6B0A643D
:102720000022FFF735BFFFF799BF00BF012912D084
:1027300009D873B90F2A0CD800EB820218465368E7
:10274000009A136070470339012994BF01200220C9
:102750007047022070470846704700BF00B585B03B
:102760000A46002303A900911946FFF7DFFF0398EB
:1027700005B05DF804FB00BF012912D009D873B978
:102780000F2A0CD800EB8200009A126842601846AB
:1027900070470339012994BF0120022070470220AD
:1027A00070470846704700BF10B584B0002303ACE3
:1027B000039200940A461946FFF7DEFF04B010BDED
:1027C00070B5D36B136402F1040C05460C46BCE8EB
:1027D0000F00ADF50E7D0DF15C0EAEE80F00BCE80C
:1027E0000F00AEE80F00BCE80F00AEE80F009CE859
:1027F0000F004FF0FF368EE80F00169610E0FFF73F
:10280000D3FF214616A8A847034616AA6946082002
:1028100083B9049B9847052806460CD0092809D09F
:1028200026996846FFF714FE03466A460C2116A84F
:10283000002BE4D0092616A8FFF758FE30460DF508
:102840000E7D70BD2DE9F04FCC6C89B01E4654F85A
:10285000043B06940D46174600F00308002E79D07D
:102860001A0C1B0405938DF81D200223D2B204EB31
:1028700082048DF81C302B6DB8F1020F08BFAC6BD1
:1028800013F001030CD005A9384600F06FFB18B90E
:10289000082009B0BDE8F08F092009B0BDE8F08F2D
:1028A000D4F800A0BAF1000FEDD0019300F00803B6
:1028B0000293022E4AD0B4F800A0B4F80290043477
:1028C000AB6C29F0010B0F2138469B44FFF746FF04
:1028D000834539D82AF001039B44834594BF0020E7
:1028E00001204FEA490303F002030AF0010A43EA18
:1028F0000A03012B49D0022B32D0002BCCD1B8F1E6
:10290000000F02D0002840F0CD800434D4F800A09D
:10291000BAF1000FCDD105A9384600F027FB0028F9
:10292000BAD1019B002BB3D00F213846FFF716FF19
:102930000E2102463846FFF737FF38466A4A0F2114
:10294000FFF732FF0720A8E70020CAE7D4F8049079
:102950000834B5E71B0205930323ADF81C308AE762
:10296000236823F0004BB8F1000F45D128B1029A3B
:10297000002A5CD0BBF1000F74D0002B00DA0434C5
:102980000BF1010B04EB8B04C0E7B8F1000F19D178
:10299000B0B163682268991C4FEAD2723FF47CAFF1
:1029A00005F158010133049100F09080201DFFF7DC
:1029B000C9FD04AB01462846AFF3008000285BD177
:1029C0000834A3E70D213846D5F82090FFF7C6FE5E
:1029D0008145F5D1AB6A9C42F2D12046FFF7ECFC71
:1029E0000F2102463846FFF7DFFE38462A4600210F
:1029F000FFF7DAFE072050E70D213846D5F8209082
:102A0000FFF7ACFE814501D02368B6E7AB6A9C4274
:102A1000FAD104230022C5E90B23E318C5F828B036
:102A20006B632368002B59DB01230193A8E705F1B1
:102A30005803CDF80C8004F1040AB04691461E46B6
:102A40000EE050460496FFF77DFD0022014604ABE0
:102A5000284609F101090AF1040AAFF30080E0B940
:102A6000D945EED10D213846FFF778FE049BAC62C4
:102A7000C5E90803062010E781460D213846FFF717
:102A80006DFEB9F1020F286225D12B46049A43F856
:102A90002C2F6B62AC620620FFE646462368DDF809
:102AA0000C806AE72046FFF787FC04340246AC63DB
:102AB00028461446AFF3008000283FF4EDAE3846B8
:102AC00022460F21FFF770FE0720E6E60D2138466B
:102AD000FFF744FE2862049B6B62DBE70BF1010009
:102AE00004EB80007AE700BF000000000023FFF73E
:102AF000A9BE00BF0123FFF7A5BE00BF0223FFF759
:102B0000A1BE00BF2DE9F0430646C3B015461C46E2
:102B1000042900F2BF80DFE801F09E57BD2D0300BD
:102B2000002C40F0B780102A00F2B4800368D80669
:102B300000F1F98020AF384600F098F9B46B3946BF
:102B400000234FF0010C0CFA03F22A42204603F155
:102B5000010303D050F8042B0A600446042B01F152
:102B60000401F0D13846B46300F076F9002043B098
:102B7000BDE8F083032C40F08D8094B204EB124347
:102B8000102B4FEA124500F2858003681F0700F101
:102B9000D28020AF384600F03DF9B26B07EBC5019B
:102BA00054B10B46D01A01EBC401E4001D5843F8A0
:102BB000045B8B42FAD122443846B26300F008F934
:102BC000002043B0BDE8F083012C4FEA124895B2D3
:102BD0005CD0052C5ED108EB0509B9F1200F59D85E
:102BE000B8F10F0F79D9A946002D40F08A80B36B58
:102BF0006DB320AF4FF0000907EBC807043F03EBAC
:102C0000C50553F8041B47F8041FAB42F9D1B9F1CD
:102C1000000F0FD06F464146102938BF102107EB37
:102C2000C101843903EBC90553F8040B41F8040FC3
:102C3000AB42F9D1012C00F08680B8F10F0FB563DB
:102C400047D9B9F1000F02D0684600F0B9F800206A
:102C500043B0BDE8F083ECB9806B23461FFA82FCD9
:102C60000124371D04FA03F212EA0C0F014604D0C6
:102C700051F8042B47F8232008460133102BF1D1DB
:102C800015F40055E3D1B063284604E008EB0503D2
:102C9000102B03D9022043B0BDE8F083B8F10F0F29
:102CA000F8D83368DA0706D5304623F0030340F836
:102CB000483B00F079F820AF384600F075F8B36B68
:102CC000002D97D11D460435B563384600F068F8ED
:102CD000BDE720A800F06CF8B3E7B9F1100F40D9B8
:102CE000A9F110093368D90708D523F0010330464C
:102CF00043F0020340F8483B00F05EF8B9F1000FE2
:102D000032D033685A0720D4B8F10F0F25D96F4657
:102D10003846C8F1100500F057F8002DB36B7FF767
:102D20007AAF20AF68E723F01003336006F5E87050
:102D300000F09CF8FEE623F00803036000F5A8709D
:102D400000F068F825E720AFBDE7304623F0040324
:102D500040F8D03B00F038F8D6E720A800F02CF877
:102D6000D5E74FF00009BDE7B8F10F0F3FF63FAFD1
:102D700020AF384600F020F8B36B002D7FF43AAF57
:102D8000384600F015F862E700F1340191E83800A8
:102D90009C46A6464CF8045D90E8FF0FE54600BD52
:102DA00090EC210B704700BF80EC210B704700BFF7
:102DB00090EC200B704700BF80EC200B704700BFE9
:102DC000D0EC200B704700BFC0EC200B704700BF59
:102DD000F0EC0201F0EC0211F0EC0221F0EC023117
:102DE000F0EC0241F0EC0251F0EC0261F0EC027107
:102DF000F0EC0281F0EC0291F0EC02A1F0EC02B1F7
:102E0000F0EC02C1F0EC02D1F0EC02E1F0EC02F1E6
:102E1000704700BFE0EC0201E0EC0211E0EC02219F
:102E2000E0EC0231E0EC0241E0EC0251E0EC026146
:102E3000E0EC0271E0EC0281E0EC0291E0EC02A136
:102E4000E0EC02B1E0EC02C1E0EC02D1E0EC02E126
:102E5000E0EC02F1704700BFB0FC0181B0FC0191D1
:102E6000B0FC01A1B0FC01B1704700BFA0FC018122
:102E7000A0FC0191A0FC01A1A0FC01B1704700BF22
:102E8000EC4600B52DE900502DE9FF1F4FF000037F
:102E90002DE90C0001A9FFF7E1FBDDF840E012B0DD
:102EA000704700BFEC4600B52DE900502DE9FF1F2B
:102EB0004FF000032DE90C0001A9FFF70BFCDDF832
:102EC00040E012B0704700BFEC4600B52DE900505D
:102ED0002DE9FF1F4FF000032DE90C0001A9FFF7BA
:102EE0001BFCDDF840E012B0704700BFEC4600B5B7
:102EF0002DE900502DE9FF1F4FF000032DE90C00D4
:102F000001ABFFF7DFFBDDF840E012B0704700BF18
:102F1000EC4600B52DE900502DE9FF1F4FF00003EE
:102F20002DE90C0001AAFFF74BFCDDF840E012B0E0
:102F3000704700BF027A03467AB9427AA2B141686B
:102F4000013A10B44272086803220C1D1A72020280
:102F50005C60000E10BC1A6070470068013A1A727B
:102F600002021A60000E7047B02070472DE9F0434E
:102F7000054685B00E464FF000083046FFF7DAFFF1
:102F8000B028044600F0BA80070620D500F0F00310
:102F9000802B4DD0902B36D0A02B60D0B02B74D08E
:102FA000C02B00F08B8000F0F803D02B0BD100F089
:102FB00007020132052342F4002201212846FFF7CF
:102FC000A1FD0028D9D0092005B0BDE8F083830019
:102FD000DBB21F1D0DF10C0900231946CDF800903E
:102FE0000D222846FFF7A2FB039BCDF80090600658
:102FF0004CBFDF1BFF1800230D22194628460397FC
:10300000FFF7BAFBB9E700F00D030D2BDBD003AFE0
:10301000002300F00F02194600972846FFF786FBB1
:10302000002300970D2219462846FFF7A5FBA4E7C9
:103030003046FFF77FFF24022043B0F5004FC2D097
:1030400004010023A2B219462846FFF75BFD0028C1
:10305000B9D114F4004F18BF4FF001088DE7C243F7
:1030600002F007034FF47F621A41010702F47F6206
:103070004FF0000348BF42F4804219462846FFF74C
:1030800041FD00283FF479AF9DE7B1283BD0B2283D
:1030900000F09380B32841D000F0FC03B42B92D011
:1030A00000F007020132012342F4002219462846AB
:1030B000FFF728FD00283FF460AF84E7C6284AD018
:1030C000C72854D000F0F803C02B63D0C82868D0BC
:1030D000C9287FF478AF3046FFF72CFF020300F0D9
:1030E0000F0002F47022013002430121052328461B
:1030F000FFF708FD00283FF440AF64E7B8F1000F88
:1031000018D0002060E73046FFF714FF0246002881
:103110003FF459AF10F0F003C8D054E73046FFF742
:1031200009FF020300F00F03013302F470221A4377
:103130000123BBE703AC43460E22414600942846D8
:10314000FFF7F4FA009443460F2241462846FFF762
:1031500013FB404638E73046FFF7ECFE020300F071
:103160000F03013302F470221A4303239EE7304613
:10317000FFF7E0FE024600283FF425AF10F0F00311
:103180007FF421AF04212846FFF7BCFC00283FF460
:10319000F4AE18E700F00F020132032342F42022BC
:1031A00084E73046FFF7C6FE00F0F00200F00F03A0
:1031B0001032013343EA023297E700230DF10C0984
:1031C0000D221946CDF800902846FFF7AFFA304699
:1031D000FFF7B0FE02064FF002040CD5039B00F08F
:1031E0007F00A040184403903046FFF7A3FE03067B
:1031F00004F10704F2D4039BCDF8009000F07F02A5
:10320000A24003F501731A440023039219460D22CC
:103210002846FFF7B1FAB0E608B5062000F0C2F97B
:103220000120FEF743FE000070B50D4D0D4C641BF0
:10323000A4100026A64209D10B4D0C4C01F0E2FA75
:10324000641BA4100026A64205D170BD55F8043BAE
:1032500098470136EEE755F8043B98470136F2E708
:1032600010484000104840001048400014484000FA
:103270000A44914200F1FF3300D1704710B511F8B4
:10328000014B03F8014F9142F9D110BD02440346AE
:10329000934200D1704703F8011BF9E70FB40A4BC2
:1032A00013B51C6824B1A36913B9204600F070FB64
:1032B00005AB049AA1680193204600F047FD02B0D7
:1032C000BDE8104004B070470000402070B50E46C5
:1032D000054618B183690BB900F05AFBAB69AC68BD
:1032E00013B9284600F054FB2C4B9C4220D16C684B
:1032F000636EDB0705D4A389980502D4A06D00F0A6
:10330000E5FBA38919071DD52369DBB1013EA3683D
:1033100016F8011F013BA36039BB002B38DA2246A7
:103320000A21284600F05AF9013011D00A2511E08F
:103330001B4B9C4201D1AC68DAE71A4B9C4208BF98
:10334000EC68D5E72146284600F09AF90028DDD040
:103350004FF0FF35636EDA0705D4A3899B0502D4CD
:10336000A06D00F0B4FB284670BD002B04DAA26902
:103370009A4206DC0A2904D023685A1C226019707C
:10338000C5E72246284600F029F90130BFD1DFE722
:1033900023680A255A1C22601D70DBE78447400021
:1033A000A447400064474000024B01461868FFF7FD
:1033B0008DBF00BF0000402000294FF480630CBF88
:1033C0000222002200F000B82DE9F7431D465D4BB4
:1033D0001F6804460E46904627B1BB6913B93846AC
:1033E00000F0D6FA584B9C4267D17C68B8F1020FC6
:1033F00006D0B8F1010F00F29F80002DC0F29C8032
:10340000636EDB0705D4A389980502D4A06D00F094
:103410005DFB2146384600F027FA616B41B104F1AB
:103420004403994202D0384600F0C0FB0023636396
:103430000023A3616360A389190603D52169384677
:1034400000F0B4FBA38923F44A6323F00303B8F12B
:10345000020FA3816CD001AB6A462146384600F0CA
:1034600037FBA3891843A081002D30D1009D284649
:1034700000F094FB0646002855D1DDF80090A945E0
:103480004AD14FF0FF350022A26004F147022260CA
:1034900022610122B4F90C306261626E43F00203D2
:1034A000D207A38105D413F4007F02D1A06D00F0F0
:1034B0000EFB284603B0BDE8F083244B9C4201D1AB
:1034C000BC6893E7224B9C4208BFFC688EE7002E45
:1034D000CDD0BB6913B9384600F05AFAB8F1010FE4
:1034E00008BFA389266004BF43F00103A381A2891A
:1034F00012F00803C4E904651CD0D30741BF0023C0
:103500006D42A360A56158BFA560656E15F0010509
:1035100015D112F4007FC8E7484600F03FFB06468D
:103520000028AED04D46A38943F08003A381D0E7A5
:103530000025A8E7A360E8E74FF0FF35B9E70025CD
:10354000B7E700BF0000402084474000A447400088
:10355000644740001F2938B504460D4604D9162398
:1035600003604FF0FF3038BD426C12B152F8213089
:103570004BB9204600F030F82A4601462046BDE807
:10358000384000F017B8012B0AD0591C03D116237C
:1035900003600120E7E7002442F8254028469847C9
:1035A0000020E0E7024B01461868FFF7D3BF00BFD9
:1035B0000000402038B5074D002304460846114658
:1035C0002B60FEF77BFC431C02D12B6803B1236008
:1035D00038BD00BF0C524020FEF771BCF8B50E4656
:1035E0001446054618B183690BB900F0D1F9214B97
:1035F0009C422BD16C68A369A360A3891A072FD5BD
:1036000023696BB323692068C01A6369F6B28342E9
:10361000374604DC2146284600F026F930BBA36873
:10362000013BA36023685A1C22601E70636901304D
:10363000834204D0A389DB0706D50A2E04D1214694
:10364000284600F011F988B93846F8BD0A4B9C426B
:1036500001D1AC68CFE7094B9C4208BFEC68CAE7D0
:103660002146284600F00CF80028CBD04FF0FF3759
:10367000EAE700BF84474000A44740006447400099
:10368000324B70B51D6806460C4625B1AB6913B9BF
:10369000284600F07DF92E4B9C420FD16C68A3891F
:1036A000B4F90C2019072CD4DD0611D4092333609A
:1036B00042F04003A3814FF0FF303EE0254B9C4297
:1036C00001D1AC68EBE7244B9C4208BFEC68E6E70D
:1036D000580712D5616B41B104F14403994202D0FD
:1036E000304600F063FA00236363A38923F02403C8
:1036F000A3810023636023692360A38943F0080347
:10370000A38123694BB9A38903F42073B3F5007F28
:1037100003D02146304600F001FAA089B4F90C200C
:1037200010F001030AD00023A36063695B42A36128
:10373000236943B910F08000BAD170BD810758BF2A
:103740006369A360F4E70020F7E700BF00004020B2
:1037500084474000A4474000644740008A892DE91F
:10376000F041054610070C4658D44B68002B05DC89
:103770000B6C002B02DC0020BDE8F081E66A002E15
:10378000F9D0002312F480522F682B6032D0606D84
:10379000A3895A0705D56368C01A636B0BB1236C04
:1037A000C01A00230246E66A216A2846B047431C35
:1037B000A38906D129681D292CD82A4ACA40D607D0
:1037C00028D500226260D9042269226004D5421CF7
:1037D00001D12B6803B96065616B2F600029CAD0E5
:1037E00004F14403994202D0284600F0DFF900209A
:1037F0006063C1E7216A01232846B047411CC7D155
:103800002B68002BC4D01D2B01D0162B01D12F60AB
:10381000B1E7A38943F04003A381ADE70F69002F0F
:10382000A9D093070E6808BF4B690F6018BF00232B
:10383000A6EB07088B60B8F1000F9CDD216AA66A31
:1038400043463A462846B047002806DCA38943F0A1
:103850004003A3814FF0FF308EE70744A8EB000838
:10386000E9E700BF0100402038B50B6905460C466A
:1038700013B90025284638BD18B183690BB900F08B
:1038800087F8144B9C421BD16C68B4F90C30002BA8
:10389000EFD0626ED00704D4990502D4A06D00F079
:1038A00015F928462146FFF759FF636EDA070546EA
:1038B000E0D4A3899B05DDD4A06D00F008F9D9E719
:1038C000054B9C4201D1AC68DFE7044B9C4208BF2A
:1038D000EC68DAE784474000A447400064474000B2
:1038E000002310B50446C0E90033C0E90433836007
:1038F00081814366C2818361194608225C30FFF7EB
:10390000C5FC054B6362054BA362054BE362054BA7
:103910002462236310BD00BFCD3F4000EF3F400055
:10392000274040004B404000014900F0AFB800BFC5
:103930006938400070B568224D1E55430E4605F1AA
:10394000740100F07FF9044640B10021C0E900167F
:103950000C30A06005F16802FFF798FC204670BDAE
:10396000014800F0B3B800BF11524020014800F0F8
:10397000AEB800BF11524020014800F0A7B800BF08
:1039800012524020014800F0A2B800BF125240205D
:1039900010B50446FFF7F0FFA3691BB1BDE8104066
:1039A000FFF7F0BFC4E912332365134B134A1B68BA
:1039B000A262A34204BF0123A361204600F020F8C5
:1039C0006060204600F01CF8A060204600F018F867
:1039D0000022E06004216068FFF782FFA0680122F6
:1039E0000921FFF77DFFE06802221221FFF778FF2F
:1039F0000123A361D2E700BF60474000293940009E
:103A0000F8B50746FFF7ACFF1E4B1E68B36913B944
:103A10003046FFF7BDFF4836D6E90134013B03D5F8
:103A200033680BB33668F7E7B4F90C50D5B9164BC9
:103A3000E36004F15800656600F047F8FFF796FF71
:103A4000C4E90155C4E904552560A5610822294649
:103A500004F15C00FFF71AFCC4E90D55C4E91255E6
:103A60002046F8BD6834D9E704213846FFF762FFE5
:103A7000044630600028D5D1FFF778FF0C233B6067
:103A8000EEE700BF604740000100FFFF2DE9F8436B
:103A90000646884600F148040027D4E90195B9F1AB
:103AA000010905D52468002CF7D13846BDE8F88314
:103AB000AB89012B07D9B5F90E30013303D0294664
:103AC0003046C04707436835E9E77047704770479D
:103AD00070B50E46B1F90E10002996B014461D4679
:103AE00008DAB6F90C3000222A601A0610D44FF416
:103AF00080630EE06A4600F0CFFA0028F1DB019AFD
:103B000002F47042A2F500535A425A412A60EEE78D
:103B100040230020236016B070BD00008B8973B570
:103B20009D0706460C4607D504F147032360236131
:103B30000123636102B070BD01AB6A46FFF7C8FFA5
:103B400000990546304600F07DF848B9B4F90C30CC
:103B50009A05EFD423F0030343F00203A381E3E7C4
:103B60000D4BB362A389206043F08003A381009BC7
:103B70006361019B20615BB1B4F90E10304600F027
:103B80009DFA28B1A38923F0030343F00103A38125
:103B9000A0890543A581CDE729394000024B0146A4
:103BA000186800F04FB800BF0000402037B500296A
:103BB00044D051F8043C0190002BA1F10404B8BF9B
:103BC000E41800F0EDFA1E4A0198136833B96360F7
:103BD000146003B0BDE8304000F0E8BAA34208D951
:103BE000256861198B4201BF19685B68491921601A
:103BF000EDE71A465B680BB1A342FAD91168551874
:103C0000A5420BD1246821445418A3421160E0D18D
:103C10001C685B68536021441160DAE702D90C2309
:103C20000360D6E7256861198B4204BF19685B6899
:103C3000636004BF491921605460CAE703B030BD16
:103C400014524020F8B5CD1C25F0030508350C2D85
:103C500038BF0C25002D064601DBA94203D90C23F1
:103C600033600020F8BD00F09BFA21490A68144631
:103C70009CB9204F3B6823B92146304600F096F9A5
:103C800038602946304600F091F9431C23D10C23BB
:103C90003360304600F08AFAE3E723685B1B17D4F1
:103CA0000B2B03D923601C44256004E06368A24207
:103CB0000CBF0B605360304600F078FA04F10B0043
:103CC000231D20F00700C21ACCD01B1AA350C9E74D
:103CD00022466468CCE7C41C24F00304A042E3D06D
:103CE000211A304600F062F90130DDD1CFE700BF84
:103CF00014524020185240209368013B002B10B40E
:103D0000936008DA9469A34201DB0A2903D15DF8C4
:103D1000044BFFF763BC1368581C10601970084609
:103D20005DF8044B7047F8B506460F461446D518A3
:103D3000AC4201D1002007E014F8011B3A4630469E
:103D4000FFF7DAFF431CF3D1F8BD00002DE9F04F77
:103D50000D469DB014469846064618B183690BB9C6
:103D6000FFF716FE894B9D421BD175686B6ED90714
:103D700005D4AB899A0502D4A86DFFF7A7FEAB89DD
:103D80001B0701D52B69EBB929463046FFF778FCB4
:103D9000C0B16B6EDC070ED54FF0FF301DB0BDE833
:103DA000F08F7B4B9D4201D1B568DFE7794B9D4297
:103DB00008BFF568DAE7AB899805EDD4A86DFFF781
:103DC00086FEE9E70023099320238DF82930CDF8FA
:103DD0000C803023DFF8C0818DF82A304FF00109C4
:103DE00023469A4613F8012B0AB1252AF9D1BAEBDA
:103DF000040B0BD05B46224629463046FFF793FF63
:103E0000013000F0AA80099A5A4409929AF80030C9
:103E1000002B00F0A28000234FF0FF32CDE90523F4
:103E20000AF1010A049307938DF853301A9354460C
:103E3000052214F8011B584800F062F9049AD8B919
:103E4000D10644BF20238DF85330130744BF2B23E2
:103E50008DF853309AF800302A2B15D0079A544623
:103E600000204FF00A0C214611F8013B303B092B92
:103E70004ED9B0B1079214E0A0EB080309FA03F39E
:103E800013430493A246D2E7039B191D1B680391B9
:103E9000002BBBBF5B4242F0020207930793B8BFFF
:103EA000049223782E2B0CD163782A2B35D1039BD7
:103EB0001A1D1B680392002BB8BF4FF0FF3302346A
:103EC0000593DFF8E4A021780322504600F018F9AA
:103ED00040B14023A0EB0A0003FA00F0049B034327
:103EE0000134049314F8011B2C488DF82810062285
:103EF00000F006F900283FD0294B1BBB039B07337A
:103F000023F0070308330393099B3B44099367E7B6
:103F10000CFB02320C460120A5E700230134059377
:103F200019464FF00A0C204610F8012B303A092AA6
:103F300003D9002BC5D00591C3E70CFB0121044632
:103F40000123F0E703AB00932A46164B04A9304641
:103F5000AFF300800746781CD6D16B6ED90705D425
:103F6000AB899A0502D4A86DFFF7B1FDAB895B065A
:103F70003FF512AF099811E703AB00932A46094BAE
:103F800004A9304600F086F9E4E700BF844740000A
:103F9000A447400064474000C4474000CE4740006B
:103FA00000000000273D4000CA47400038B5064DDC
:103FB0000023044608462B60FDF75AFF431C02D13C
:103FC0002B6803B1236038BD0C52402010B50C465D
:103FD000B1F90E1000F084FA0028ABBF636DA3891D
:103FE0001B1823F48053ACBF6365A38110BD2DE97A
:103FF000F0411F468B89DB0505460C46164605D564
:10400000B1F90E100223002200F068F8A389B4F978
:104010000E1023F48053A38132463B462846BDE868
:10402000F04100F017B810B50C46B1F90E1000F0D1
:1040300055F8431CA38915BF606523F4805343F4EE
:104040008053A38118BFA38110BDB1F90E1000F0F9
:1040500013B8000038B5074D044608461146002243
:104060002A601A46FDF736FD431C02D12B6803B1C6
:10407000236038BD0C52402038B5064D002304465D
:1040800008462B60FDF706FF431C02D12B6803B1E5
:10409000236038BD0C52402038B5074D002304463C
:1040A000084611462B60FDF7F8FE431C02D12B6831
:1040B00003B1236038BD00BF0C52402038B5064D17
:1040C0000023044608462B60FDF7ECFE431C02D19A
:1040D0002B6803B1236038BD0C52402038B5074D22
:1040E00004460846114600222A601A46FDF7DCFE07
:1040F000431C02D12B6803B1236038BD0C52402011
:1041000001F0FF01102A2BDB10F0070F08D010F888
:10411000013B013A8B422DD010F0070F42B3F6D18C
:10412000F0B441EA012141EA014122F007047FF0A5
:1041300000070023F0E80256083C85EA010586EAFC
:10414000010685FA47F5A3FA87F586FA47F6A5FA38
:1041500087F68EB9EED1F0BC01F0FF0102F0070244
:1041600032B110F8013B013A83EA010313B1F8D1EF
:104170000020704701387047002D06BF35460338D0
:10418000073815F0010F07D1013015F4807F02BF09
:10419000013015F4C03F0130F0BC0138704700BF5A
:1041A0000148FFF793BC00BF105240200148FFF7C1
:1041B0008EBC00BF105240202DE9F04716469946AC
:1041C0008A680B69DDF820809342B8BF13463360DC
:1041D00091F8432007460C460AB101333360236847
:1041E000990642BF336802333360256815F006052F
:1041F00006D104F1190AE36832689B1AAB4226DC47
:1042000094F84320131E226818BF012392062BD472
:1042100004F1430249463846C04701301ED02368A6
:10422000E568326803F00603042B08BFAD1AA368E3
:1042300022690CBF25EAE57500259342C4BF9B1A8D
:10424000ED1800261A34B5421AD1002008E00123E7
:10425000524649463846C047013003D14FF0FF303F
:10426000BDE8F0870135C6E7E1185A1C302081F817
:104270004300224494F8451082F843100233C7E704
:104280000123224649463846C0470130E6D0013670
:10429000D9E700002DE9FF470F7E0C9D782F91464E
:1042A00080460C469A4601F1430207D8622F0AD88D
:1042B000002F00F0D880582F00F0A38004F14205B1
:1042C00084F842703AE0A7F16303152BF6D801A1F8
:1042D00051F823F02D43400041434000BD424000CF
:1042E000BD424000BD424000BD424000414340004D
:1042F000BD424000BD424000BD424000BD424000C2
:104300004D444000714340002F444000BD424000F6
:10431000BD4240006F444000BD4240007143400038
:10432000BD424000BD424000374440002B681A1D8A
:104330001B682A6004F1420584F842300123A3E09F
:1043400020682968060601F104030AD50E682B606F
:10435000002E03DA2D23764284F843305E480A2388
:1043600019E00E682B6010F0400F18BF36B2EFE76F
:104370002B682068191D2960010601D51E6802E01E
:104380004606FBD51E8854486F2F0CBF08230A230E
:10439000002184F843106568A560002DA2BF216844
:1043A00021F0040121600EB9002D4DD01546B6FB59
:1043B000F3F103FB1167C75D05F8017D3746BB428A
:1043C0000E46F4D9082B0BD12368DE0708D52369E4
:1043D00061689942DEBF302305F8013C05F1FF35E5
:1043E000521B2261CDF800A04B4603AA214640464D
:1043F000FFF7E2FE01304CD14FF0FF3004B0BDE8D2
:10440000F087354881F845702968236851F8046BB6
:1044100029601D0614D5DF0744BF43F02003236045
:104420001EB9236823F0200323601023B0E723681C
:1044300043F0200323607823284884F84530E3E7DD
:10444000590648BFB6B2E6E71546BBE72B682668B3
:104450006169181D286035061B6801D5196002E0E6
:104460007006FBD51980002323611546BAE72B6837
:104470001A1D2A601D68626800212846FFF740FE69
:1044800008B1401B606063682361002384F84330F7
:10449000A8E723692A4649464046D0470130ABD0B9
:1044A00023689B0713D4E068039B9842B8BF184663
:1044B000A4E70123324649464046D04701309BD00D
:1044C0000135E36803995B1AAB42F2DCEBE70025A8
:1044D00004F11906F5E700BFD5474000E647400064
:1044E00038B5074D04460846114600222A601A4690
:1044F000FDF7E4FA431C02D12B6803B1236038BDF9
:104500000C5240203F00000075432F4F532D494966
:104510002049646C6500000075432F4F532D4949B5
:1045200020537461740000000000010002000100CB
:10453000030001000200010004000100020001006C
:10454000030001000200010005000100020001005B
:10455000030001000200010004000100020001004C
:10456000030001000200010006000100020001003A
:10457000030001000200010004000100020001002C
:10458000030001000200010005000100020001001B
:10459000030001000200010004000100020001000C
:1045A00003000100020001000700010002000100F9
:1045B00003000100020001000400010002000100EC
:1045C00003000100020001000500010002000100DB
:1045D00003000100020001000400010002000100CC
:1045E00003000100020001000600010002000100BA
:1045F00003000100020001000400010002000100AC
:10460000030001000200010005000100020001009A
:10461000030001000200010004000100020001008B
:10462000030001000200010075432F4F532D49493B
:1046300020546D724C6F636B0000000075432F4F68
:10464000532D494920546D725369676E616C0000A7
:1046500075432F4F532D494920546D7200000000BF
:10466000486561700000000001000000C0081000F3
:104670005100030045786974696E67207769746832
:10468000207374617475732025642E0A0000000085
:104690006C6564207461736B2072756E0D00000090
:1046A0003D3D3D3D3D3D3D3D3D3D3D3D3D3D3D3D3A
:1046B0003D3D3D3D3D3D3D3D3D3D3D3D3D3D3D3D2A
:1046C0003D3D3D3D3D3D3D3D3D3D3D3D3D3D3D3D1A
:1046D0003D3D0D0020205072696F20202020205584
:1046E00073656420202020467265652020202050BC
:1046F00065722020202020205461736B6E616D65EF
:104700000D000000202020253264202020202535A7
:10471000642020202025356420202020253032648C
:104720002525202020202025730D0A0075436F7356
:10473000322077697468204C5749502064656D6F4A
:104740002072756E206F6E2053414D4537305132C7
:10475000310D00006C6564207461736B0000000013
:1047600004004020000000000000000000000000E5
:104770000000000000000000000000000000000039
:104780000000000000000000000000000000000029
:104790000000000000000000000000000000000019
:1047A0000000000000000000000000000000000009
:1047B00000000000000000000000000000000000F9
:1047C00000000000232D302B2000686C4C00656633
:1047D0006745464700303132333435363738394152
:1047E0004243444546003031323334353637383968
:1047F000616263646566000008B10181B0B0008445
:1048000000000000F8B500BFF8BC08BC9E46704729
:104810008D014000F8B500BFF8BC08BC9E4670474B
:0448200069014000EA
:1048240044DAFF7FD0FFFF7F80DAFF7F01000000C2
:104834001CDCFF7FB0A90280B0DCFF7FB0B0A88091
:1048440000DDFF7F0100000008DDFF7FB0B0AA801B
:104854003CDDFF7FAE71B28000DEFF7FAB3F38806E
:1048640060DEFF7F0100000068DEFF7FB0B0AA8039
:10487400A4DEFF7F0100000044DFFF7FAA0DB280A9
:10488400C0DFFF7FB0AF088060E2FF7F010000005F
:1048940070E2FF7FAD3F0280ECE4FF7F0100000087
:1048A400C8E6FF7FB0AD04806CE9FF7F0100000023
:1048B400040040200000000084474000A44740005A
:1048C40064474000000000000000000000000000F9
:1048D40000000000000000000000000000000000D4
:1048E40000000000000000000000000000000000C4
:1048F40000000000000000000000000000000000B4
:1049040000000000000000000000000000000000A3
:04491400000000009F
:0400000500400000B7
:00000001FF
